:020000040800F2
:10000000600600206D0100087501000877010008F6
:10001000790100087B0100087D0100080000000054
:100020000000000000000000000000007F01000848
:10003000810100080000000083010008850100081C
:100040008701000887010008870100088701000870
:1000500087010008870100088701000829020008BD
:100060008701000887010008870100088701000850
:100070008701000887010008870100088701000840
:100080008701000887010008870100088701000830
:100090008701000887010008870100088701000820
:1000A0008701000887010008870100088701000810
:1000B0008701000887010008870100088701000800
:1000C00087010008870100088701000887010008F0
:1000D00087010008870100088701000887010008E0
:1000E00087010008870100088701000800F002F876
:1000F00000F02CF80AA090E8000C82448344AAF196
:100100000107DA4501D100F021F8AFF2090EBAE893
:100110000F0013F0010F18BFFB1A43F0010318473B
:100120005003000060030000002300240025002687
:10013000103A28BF78C1FBD8520728BF30C148BF4A
:100140000B6070471FB51FBD10B510BD00F031F832
:100150001146FFF7F7FF00F084F900F04FF803B401
:10016000FFF7F2FF03BC00F057F800000948804792
:1001700009480047FEE7FEE7FEE7FEE7FEE7FEE789
:10018000FEE7FEE7FEE7FEE704480549054A064BA1
:1001900070470000E9030008ED000008600000203F
:1001A0006006002060020020600200207047704757
:1001B0007047754600F02CF8AE4605006946534678
:1001C00020F00700854618B020B5FFF7DDFFBDE839
:1001D00020404FF000064FF000074FF000084FF0AE
:1001E000000B21F00701AC46ACE8C009ACE8C0093F
:1001F000ACE8C009ACE8C0098D46704710B50446AC
:10020000AFF300802046BDE81040FFF7A8BF000014
:10021000004870470000002001491820ABBEFEE7EF
:10022000260002007047000000B50F480068022851
:1002300018D10D4814380068022813D10A49086003
:100240000A48006840F0200008490860642000F077
:10025000FBF80648006820F020000449086064208C
:1002600000F0F2F800BD0000140401400C08014049
:100270001448806940F00100124988611020124939
:10028000886002201149086010480838006840F072
:1002900002000E49083908600020091F08600B4958
:1002A000091F086009481438006840F00200074937
:1002B000143908600020091D086080200449086086
:1002C000704700000010024000000140140401408B
:1002D00000E100E00848806940F0040006498861B8
:1002E0000648006860F47000044908600846006829
:1002F00040F44010086070470010024000080140C0
:1003000010B500F001F810BD0CB500200190009070
:100310003348006840F480303149086000BF3048FD
:10032000006800F4003000900198401C0190009893
:1003300018B90198B0F5A06FF1D12948006800F410
:10034000003010B10120009001E0002000900098E2
:10035000012843D12348006840F01000214908607B
:100360000846006820F0030008600846006840F076
:10037000020008601A484068194948600846406809
:1003800048600846406840F480604860084640681D
:1003900020F47C1048600846406840F4E81048604B
:1003A0000846006840F08070086000BF0C48006894
:1003B00000F000700028F9D00948406820F00300E0
:1003C000074948600846406840F00200486000BFA6
:1003D0000348406800F00C000828F9D10CBD00006B
:1003E000001002400020024010B51348006840F0A1
:1003F00001001149086008464068104908400E494C
:100400004860084600680E4908400B4908600846E5
:10041000006820F4802008600846406820F4FE0050
:1004200048604FF41F008860FFF76AFF4FF00060DC
:100430000449086010BD0000001002400000FFF8F1
:10044000FFFFF6FE08ED00E0002107E0002200E0DB
:10045000521C42F6FF239A42FADB491C8142F5DB2B
:100460007047FFF737FFFFF703FF00BFFEE700000D
:100470008004000800000020600600002801000839
:040000050800016D81
:00000001FF
